{
  "_format": "hh-sol-artifact-1",
  "contractName": "Staking",
  "sourceName": "contracts/Staking.sol",
  "abi": [
    {
      "inputs": [
        {
          "internalType": "address",
          "name": "stakingToken",
          "type": "address"
        },
        {
          "internalType": "address",
          "name": "rewardToken",
          "type": "address"
        }
      ],
      "stateMutability": "nonpayable",
      "type": "constructor"
    },
    {
      "inputs": [],
      "name": "REWARD_RATE",
      "outputs": [
        {
          "internalType": "uint256",
          "name": "",
          "type": "uint256"
        }
      ],
      "stateMutability": "view",
      "type": "function"
    },
    {
      "inputs": [],
      "name": "claimReward",
      "outputs": [],
      "stateMutability": "nonpayable",
      "type": "function"
    },
    {
      "inputs": [
        {
          "internalType": "address",
          "name": "account",
          "type": "address"
        }
      ],
      "name": "earned",
      "outputs": [
        {
          "internalType": "uint256",
          "name": "",
          "type": "uint256"
        }
      ],
      "stateMutability": "view",
      "type": "function"
    },
    {
      "inputs": [],
      "name": "rewardPerToken",
      "outputs": [
        {
          "internalType": "uint256",
          "name": "",
          "type": "uint256"
        }
      ],
      "stateMutability": "view",
      "type": "function"
    },
    {
      "inputs": [
        {
          "internalType": "address",
          "name": "",
          "type": "address"
        }
      ],
      "name": "s_balances",
      "outputs": [
        {
          "internalType": "uint256",
          "name": "",
          "type": "uint256"
        }
      ],
      "stateMutability": "view",
      "type": "function"
    },
    {
      "inputs": [],
      "name": "s_lastUpdateTime",
      "outputs": [
        {
          "internalType": "uint256",
          "name": "",
          "type": "uint256"
        }
      ],
      "stateMutability": "view",
      "type": "function"
    },
    {
      "inputs": [],
      "name": "s_rewardPerTokenStored",
      "outputs": [
        {
          "internalType": "uint256",
          "name": "",
          "type": "uint256"
        }
      ],
      "stateMutability": "view",
      "type": "function"
    },
    {
      "inputs": [],
      "name": "s_rewardToken",
      "outputs": [
        {
          "internalType": "contract IERC20",
          "name": "",
          "type": "address"
        }
      ],
      "stateMutability": "view",
      "type": "function"
    },
    {
      "inputs": [
        {
          "internalType": "address",
          "name": "",
          "type": "address"
        }
      ],
      "name": "s_rewards",
      "outputs": [
        {
          "internalType": "uint256",
          "name": "",
          "type": "uint256"
        }
      ],
      "stateMutability": "view",
      "type": "function"
    },
    {
      "inputs": [],
      "name": "s_stakingToken",
      "outputs": [
        {
          "internalType": "contract IERC20",
          "name": "",
          "type": "address"
        }
      ],
      "stateMutability": "view",
      "type": "function"
    },
    {
      "inputs": [],
      "name": "s_totalSupply",
      "outputs": [
        {
          "internalType": "uint256",
          "name": "",
          "type": "uint256"
        }
      ],
      "stateMutability": "view",
      "type": "function"
    },
    {
      "inputs": [
        {
          "internalType": "address",
          "name": "",
          "type": "address"
        }
      ],
      "name": "s_userRewardPerTokenPaid",
      "outputs": [
        {
          "internalType": "uint256",
          "name": "",
          "type": "uint256"
        }
      ],
      "stateMutability": "view",
      "type": "function"
    },
    {
      "inputs": [
        {
          "internalType": "uint256",
          "name": "amount",
          "type": "uint256"
        }
      ],
      "name": "stake",
      "outputs": [],
      "stateMutability": "nonpayable",
      "type": "function"
    },
    {
      "inputs": [
        {
          "internalType": "uint256",
          "name": "amount",
          "type": "uint256"
        }
      ],
      "name": "withdraw",
      "outputs": [],
      "stateMutability": "nonpayable",
      "type": "function"
    }
  ],
  "bytecode": "0x60806040523480156200001157600080fd5b50604051620012ac380380620012ac83398181016040528101906200003791906200012a565b816000806101000a81548173ffffffffffffffffffffffffffffffffffffffff021916908373ffffffffffffffffffffffffffffffffffffffff16021790555080600160006101000a81548173ffffffffffffffffffffffffffffffffffffffff021916908373ffffffffffffffffffffffffffffffffffffffff160217905550505062000171565b600080fd5b600073ffffffffffffffffffffffffffffffffffffffff82169050919050565b6000620000f282620000c5565b9050919050565b6200010481620000e5565b81146200011057600080fd5b50565b6000815190506200012481620000f9565b92915050565b60008060408385031215620001445762000143620000c0565b5b6000620001548582860162000113565b9250506020620001678582860162000113565b9150509250929050565b61112b80620001816000396000f3fe608060405234801561001057600080fd5b50600436106100e95760003560e01c8063a694fc3a1161008c578063b88a802f11610066578063b88a802f1461023a578063bea0815114610244578063cd3daf9d14610274578063f245ace414610292576100e9565b8063a694fc3a146101d0578063ab32eb69146101ec578063adca9b721461021c576100e9565b80635997bb37116100c85780635997bb37146101585780636374cc00146101765780636a74a0fc146101945780636aa0838f146101b2576100e9565b80628cc262146100ee5780632e1a7d4d1461011e578063304ac91b1461013a575b600080fd5b61010860048036038101906101039190610bf3565b6102c2565b6040516101159190610c39565b60405180910390f35b61013860048036038101906101339190610c80565b6103e1565b005b61014261066a565b60405161014f9190610c39565b60405180910390f35b610160610670565b60405161016d9190610c39565b60405180910390f35b61017e610675565b60405161018b9190610d0c565b60405180910390f35b61019c61069b565b6040516101a99190610c39565b60405180910390f35b6101ba6106a1565b6040516101c79190610c39565b60405180910390f35b6101ea60048036038101906101e59190610c80565b6106a7565b005b61020660048036038101906102019190610bf3565b6108ed565b6040516102139190610c39565b60405180910390f35b610224610905565b6040516102319190610d0c565b60405180910390f35b610242610929565b005b61025e60048036038101906102599190610bf3565b610afe565b60405161026b9190610c39565b60405180910390f35b61027c610b16565b6040516102899190610c39565b60405180910390f35b6102ac60048036038101906102a79190610bf3565b610b78565b6040516102b99190610c39565b60405180910390f35b600080600760008473ffffffffffffffffffffffffffffffffffffffff1673ffffffffffffffffffffffffffffffffffffffff1681526020019081526020016000205490506000600560008573ffffffffffffffffffffffffffffffffffffffff1673ffffffffffffffffffffffffffffffffffffffff1681526020019081526020016000205490506000610355610b16565b90506000600660008773ffffffffffffffffffffffffffffffffffffffff1673ffffffffffffffffffffffffffffffffffffffff168152602001908152602001600020549050600081670de0b6b3a764000085856103b39190610d56565b876103be9190610d8a565b6103c89190610dfb565b6103d29190610e2c565b90508095505050505050919050565b336103ea610b16565b60038190555042600481905550610400816102c2565b600660008373ffffffffffffffffffffffffffffffffffffffff1673ffffffffffffffffffffffffffffffffffffffff16815260200190815260200160002081905550600354600560008373ffffffffffffffffffffffffffffffffffffffff1673ffffffffffffffffffffffffffffffffffffffff1681526020019081526020016000208190555081600081116104cd576040517f08c379a00000000000000000000000000000000000000000000000000000000081526004016104c490610ebd565b60405180910390fd5b8260008111610511576040517f08c379a000000000000000000000000000000000000000000000000000000000815260040161050890610ebd565b60405180910390fd5b83600760003373ffffffffffffffffffffffffffffffffffffffff1673ffffffffffffffffffffffffffffffffffffffff16815260200190815260200160002060008282546105609190610d56565b9250508190555083600260008282546105799190610d56565b9250508190555060008060009054906101000a900473ffffffffffffffffffffffffffffffffffffffff1673ffffffffffffffffffffffffffffffffffffffff1663a9059cbb33876040518363ffffffff1660e01b81526004016105de929190610eec565b6020604051808303816000875af11580156105fd573d6000803e3d6000fd5b505050506040513d601f19601f820116820180604052508101906106219190610f4d565b905080610663576040517f08c379a000000000000000000000000000000000000000000000000000000000815260040161065a90610fc6565b60405180910390fd5b5050505050565b60035481565b606481565b600160009054906101000a900473ffffffffffffffffffffffffffffffffffffffff1681565b60025481565b60045481565b336106b0610b16565b600381905550426004819055506106c6816102c2565b600660008373ffffffffffffffffffffffffffffffffffffffff1673ffffffffffffffffffffffffffffffffffffffff16815260200190815260200160002081905550600354600560008373ffffffffffffffffffffffffffffffffffffffff1673ffffffffffffffffffffffffffffffffffffffff168152602001908152602001600020819055508160008111610793576040517f08c379a000000000000000000000000000000000000000000000000000000000815260040161078a90610ebd565b60405180910390fd5b82600760003373ffffffffffffffffffffffffffffffffffffffff1673ffffffffffffffffffffffffffffffffffffffff16815260200190815260200160002060008282546107e29190610e2c565b9250508190555082600260008282546107fb9190610e2c565b9250508190555060008060009054906101000a900473ffffffffffffffffffffffffffffffffffffffff1673ffffffffffffffffffffffffffffffffffffffff166323b872dd3330876040518463ffffffff1660e01b815260040161086293929190610fe6565b6020604051808303816000875af1158015610881573d6000803e3d6000fd5b505050506040513d601f19601f820116820180604052508101906108a59190610f4d565b9050806108e7576040517f08c379a00000000000000000000000000000000000000000000000000000000081526004016108de90611069565b60405180910390fd5b50505050565b60076020528060005260406000206000915090505481565b60008054906101000a900473ffffffffffffffffffffffffffffffffffffffff1681565b33610932610b16565b60038190555042600481905550610948816102c2565b600660008373ffffffffffffffffffffffffffffffffffffffff1673ffffffffffffffffffffffffffffffffffffffff16815260200190815260200160002081905550600354600560008373ffffffffffffffffffffffffffffffffffffffff1673ffffffffffffffffffffffffffffffffffffffff168152602001908152602001600020819055506000600660003373ffffffffffffffffffffffffffffffffffffffff1673ffffffffffffffffffffffffffffffffffffffff1681526020019081526020016000205490506000600160009054906101000a900473ffffffffffffffffffffffffffffffffffffffff1673ffffffffffffffffffffffffffffffffffffffff1663a9059cbb33846040518363ffffffff1660e01b8152600401610a74929190610eec565b6020604051808303816000875af1158015610a93573d6000803e3d6000fd5b505050506040513d601f19601f82011682018060405250810190610ab79190610f4d565b905080610af9576040517f08c379a0000000000000000000000000000000000000000000000000000000008152600401610af0906110d5565b60405180910390fd5b505050565b60066020528060005260406000206000915090505481565b60008060025403610b2b576003549050610b75565b600254670de0b6b3a7640000606460045442610b479190610d56565b610b519190610d8a565b610b5b9190610d8a565b610b659190610dfb565b600354610b729190610e2c565b90505b90565b60056020528060005260406000206000915090505481565b600080fd5b600073ffffffffffffffffffffffffffffffffffffffff82169050919050565b6000610bc082610b95565b9050919050565b610bd081610bb5565b8114610bdb57600080fd5b50565b600081359050610bed81610bc7565b92915050565b600060208284031215610c0957610c08610b90565b5b6000610c1784828501610bde565b91505092915050565b6000819050919050565b610c3381610c20565b82525050565b6000602082019050610c4e6000830184610c2a565b92915050565b610c5d81610c20565b8114610c6857600080fd5b50565b600081359050610c7a81610c54565b92915050565b600060208284031215610c9657610c95610b90565b5b6000610ca484828501610c6b565b91505092915050565b6000819050919050565b6000610cd2610ccd610cc884610b95565b610cad565b610b95565b9050919050565b6000610ce482610cb7565b9050919050565b6000610cf682610cd9565b9050919050565b610d0681610ceb565b82525050565b6000602082019050610d216000830184610cfd565b92915050565b7f4e487b7100000000000000000000000000000000000000000000000000000000600052601160045260246000fd5b6000610d6182610c20565b9150610d6c83610c20565b9250828203905081811115610d8457610d83610d27565b5b92915050565b6000610d9582610c20565b9150610da083610c20565b9250828202610dae81610c20565b91508282048414831517610dc557610dc4610d27565b5b5092915050565b7f4e487b7100000000000000000000000000000000000000000000000000000000600052601260045260246000fd5b6000610e0682610c20565b9150610e1183610c20565b925082610e2157610e20610dcc565b5b828204905092915050565b6000610e3782610c20565b9150610e4283610c20565b9250828201905080821115610e5a57610e59610d27565b5b92915050565b600082825260208201905092915050565b7f416d6f756e742063616e2774206265207a65726f000000000000000000000000600082015250565b6000610ea7601483610e60565b9150610eb282610e71565b602082019050919050565b60006020820190508181036000830152610ed681610e9a565b9050919050565b610ee681610bb5565b82525050565b6000604082019050610f016000830185610edd565b610f0e6020830184610c2a565b9392505050565b60008115159050919050565b610f2a81610f15565b8114610f3557600080fd5b50565b600081519050610f4781610f21565b92915050565b600060208284031215610f6357610f62610b90565b5b6000610f7184828501610f38565b91505092915050565b7f5769746864726177616c206661696c6564000000000000000000000000000000600082015250565b6000610fb0601183610e60565b9150610fbb82610f7a565b602082019050919050565b60006020820190508181036000830152610fdf81610fa3565b9050919050565b6000606082019050610ffb6000830186610edd565b6110086020830185610edd565b6110156040830184610c2a565b949350505050565b7f5374616b65206661696c65640000000000000000000000000000000000000000600082015250565b6000611053600c83610e60565b915061105e8261101d565b602082019050919050565b6000602082019050818103600083015261108281611046565b9050919050565b7f5472616e73666572206661696c65640000000000000000000000000000000000600082015250565b60006110bf600f83610e60565b91506110ca82611089565b602082019050919050565b600060208201905081810360008301526110ee816110b2565b905091905056fea26469706673582212209d5c294024deeb5c667a6c824074ac6d48158a2273c439f2e114c2b8e8c8a7ed64736f6c63430008140033",
  "linkReferences": {},
  "deployedLinkReferences": {}
}